:100000000C942A000C943F000C943F000C943F0089
:100010000C943F000C943F000C943F000C943F0064
:100020000C943F000C943F000C943F000C943F0054
:100030000C943F000C943F000C943F000C943F0044
:100040000C943F000C943F000C943F000C943F0034
:100050000C943F0011241FBECFE5D8E0DEBFCDBF1A
:1000600010E0A0E6B0E0E6E2F9E002C005900D92F3
:10007000A43AB107D9F70E94FE010C9491040C94A4
:10008000000080FF02C0AA9A01C0AA9881FF02C0A6
:10009000AB9A01C0AB9882FF02C0AC9A01C0AC9889
:1000A00083FF02C0AD9A0895AD98089583B390E0A0
:1000B000969587959695879581709B9982609C9976
:1000C00084609D99886008951F93A598A498A3982B
:1000D000A298C19AC29A0E945600182F1295107FBA
:1000E000C298C29A0E945600C298812B1F9108950F
:1000F000C0980E94640008951F93182FA59AA49A8F
:10010000A39AA29AC198C29A82958F700E944100C8
:10011000C298C29A812F0E944100C2980E94780022
:1001200087FDFCCF1F910895C0980E947C00089520
:10013000C09A0E947C000895982F8058883008F457
:100140009770892F0E9498000895CF93DF93EC0158
:1001500002C00E949C0089918823D9F7DF91CF913A
:100160000895CF93DF93EC0102C00E949C00FE0132
:10017000219684918823C9F7DF91CF9108951F9329
:10018000CF93DF93EB0190E0877090700896880F13
:10019000880F880F0E94940010E089910E949800B7
:1001A0001F5F1830D1F7DF91CF911F9108950F9302
:1001B0001F93CF93DF938B0190E087709070089628
:1001C000880F880F880F0E949400C0E0D0E0F801EB
:1001D000EC0FFD1FE4918E2F0E9498002196C830ED
:1001E000D105A9F7DF91CF911F910F91089581302B
:1001F00009F480E46058860F0E949400089581E01D
:100200000E949400089583E00E94940008958EE077
:100210000E94940008958CE00E94940008958FE05D
:100220000E94940008958CE00E94940008950F931A
:100230001F93A59AA49AA39AA29AB89ABA9AB99A1D
:10024000C09AC29AC19A80E395E70197F1F7C298E4
:10025000C098C198C29A83E00E944100C29888E089
:1002600090E20197F1F7C29A83E00E944100C298A0
:1002700008EC10E0C8010197F1F7C29A83E00E94F0
:100280004100C298C8010197F1F7C29A82E00E942A
:100290004100C298C8010197F1F788E20E949400DA
:1002A0008AE00E9494008CE00E94940086E00E9404
:1002B00094000E94FF001F910F9108950F931F93C8
:1002C000CF93DF938B0190E0877090700896880F32
:1002D000880F880F0E949400C0E0D0E0C8018C0F06
:1002E0009D1F0E94E6030E9498002196C830D10508
:1002F000A9F7DF91CF911F910F910895CF93DF93CD
:10030000EC0121960E94E603982F81508E3F28F43D
:10031000892F0E949C00CE01F3CFDF91CF910895E9
:10032000DF93CF93CDB7DEB761970FB6F894DEBFFA
:100330000FBECDBFAE014F5F5F4F20E130E00E94A6
:10034000B2030E94A50061960FB6F894DEBF0FBEFF
:10035000CDBFCF91DF910895DF93CF93CDB7DEB7B7
:1003600061970FB6F894DEBF0FBECDBFBE016F5FC1
:100370007F4F4AE050E00E9491030E94A5006196E1
:100380000FB6F894DEBF0FBECDBFCF91DF910895B9
:100390009E9902C080E0089580E293E028EC30E06E
:1003A000F9013197F1F70197D9F783B390E026E08F
:1003B000969587952A95E1F7817008950F931F937D
:1003C000CF93DF93EC016817790724F08B01081BAA
:1003D000190B04C0861B970BEB018C01011511054D
:1003E00039F00E948103B8010E940903C80FD91F88
:1003F000CE01DF91CF911F910F910895CF92DF929F
:10040000EF92FF920F931F93CF93DF930E941701F8
:100410000E94FF00A698AE9A80E690E00E94A50098
:1004200080E197E228EC30E0F9013197F1F701978C
:10043000D9F786E690E00E94A50080E197E228ECDB
:1004400030E0F9013197F1F70197D9F781E060E0E9
:100450000E94F7008FE690E00E94A50080E197E2FD
:1004600028EC30E0F9013197F1F70197D9F784E7EB
:1004700090E00E94A50080E197E228EC30E0F901CD
:100480003197F1F70197D9F70E94FF0087E790E0D5
:100490000E94A50080E197E228EC30E0F901319755
:1004A000F1F70197D9F70E94FF0089E790E00E94D9
:1004B000A50080E197E228EC30E0F9013197F1F7EF
:1004C0000197D9F70E94FF008BE790E00E94A500FA
:1004D00080E197E228EC30E0F9013197F1F70197DC
:1004E000D9F70E94FF008DE790E00E94A50080E10F
:1004F00097E228EC30E0F9013197F1F70197D9F74D
:100500000E94FF0000E010E048ECC42ED12C80E0F7
:1005100090E062E070E00E94DE01EC013FE0F32E2B
:10052000E82E8E2D6F2D0E94F70083E890E00E9448
:10053000A50081E060E00E94F70085E890E00E945D
:10054000A50080E060E00E94F700C8010E94AC01B5
:1005500084ED93E0F6013197F1F70197D9F78E2DED
:100560006F2D0E94F70088E890E00E94A50081E0CE
:1005700060E00E94F70085E890E00E94A50080E01E
:1005800060E00E94F700C8010E94AC010E94C8010F
:10059000882321F00E94FF0080E003C00E94FF003A
:1005A00081E062E00E94F7008AE890E00E94A500E6
:1005B000FA9481E0F81609F0B4CF0E94C8018823AC
:1005C00011F0209751F00E94C801882319F4219757
:1005D000229718F00F5F1F4F9ACF0E94FF008CE800
:1005E00090E00E94A50081E060E00E94F70083E9AE
:1005F00090E00E94A500C8010E94AC0180E090E05C
:10060000DF91CF911F910F91FF90EF90DF90CF90EE
:10061000089597FB092E07260AD077FD04D00CD049
:1006200006D000201AF4709561957F4F0895F6F773
:10063000909581959F4F0895AA1BBB1B51E107C060
:10064000AA1FBB1FA617B70710F0A61BB70B881F62
:10065000991F5A95A9F780959095BC01CD010895F1
:10066000A0E0B0E0E6E3F3E00C946204EC01A880C3
:10067000B980CA80DB80A114B104C104D10441F463
:1006800084E2A82E89EDB82E8BE5C82E87E0D82EFF
:10069000C601B5012DE133EF41E050E00E943F0477
:1006A00027EA31E440E050E00E94FE037B018C0128
:1006B000C601B5012DE133EF41E050E00E943F0457
:1006C000CA01B9012CEE34EF4FEF5FEF0E94FE0339
:1006D0006E0D7F1D801F911F97FF04C061507040F9
:1006E00080409048688379838A839B839B013F770E
:1006F000C901CDB7DEB7EAE00C947E040E94300356
:1007000008958FE990E00E9430030895A0E0B0E0E2
:1007100080939F009093A000A093A100B093A200AB
:100720000895FB019F01E8944230C4F04532B4F4CF
:100730004A3029F497FB1EF4909581959F4F642FC2
:1007400077270E941C03805D8A330CF0895D8193BA
:10075000CB010097A1F716F45DE251931082C90115
:100760000C94EE03FA01CF93FF93EF93223044F100
:10077000253234F5C22FE894CA3049F497FB3EF491
:1007800090958095709561957F4F8F4F9F4F2C2F3F
:10079000332744275527FF93EF930E941D04EF91C1
:1007A000FF91605D6A330CF0695D6193B901CA0124
:1007B000605070408040904051F716F4CDE2C193F4
:1007C00010828F919F91CF910C94EE03E199FECF0F
:1007D0009FBB8EBBE09A99278DB30895DC01FC0185
:1007E000672F71917723E1F7329704C07C916D9365
:1007F00070836291AE17BF07C8F30895629FD0015E
:10080000739FF001829FE00DF11D649FE00DF11DCB
:10081000929FF00D839FF00D749FF00D659FF00D7A
:100820009927729FB00DE11DF91F639FB00DE11D67
:10083000F91FBD01CF0111240895A1E21A2EAA1BB0
:10084000BB1BFD010DC0AA1FBB1FEE1FFF1FA21780
:10085000B307E407F50720F0A21BB30BE40BF50B7D
:10086000661F771F881F991F1A9469F76095709506
:10087000809590959B01AC01BD01CF01089597FB38
:10088000092E05260ED057FD04D0D7DF0AD0001C54
:1008900038F450954095309521953F4F4F4F5F4F1D
:1008A0000895F6F790958095709561957F4F8F4FDD
:1008B0009F4F08952F923F924F925F926F927F9237
:1008C0008F929F92AF92BF92CF92DF92EF92FF9260
:1008D0000F931F93CF93DF93CDB7DEB7CA1BDB0B0C
:1008E0000FB6F894DEBF0FBECDBF09942A883988B1
:1008F00048885F846E847D848C849B84AA84B984B8
:10090000C884DF80EE80FD800C811B81AA81B981C3
:10091000CE0FD11D0FB6F894DEBF0FBECDBFED01D7
:060920000895F894FFCFDA
:100926004D6F6A6120007069657277737A6100475E
:10093600524120003A440033003200310053544102
:100946005254008300502E00810082006B6F6E6946
:10095600656300696C6F736320706B743A200001E5
:04096600000000008D
:00000001FF
